:060000000A128A11122809
:10000800FE00030EF1000408F2000A08F300831250
:1000180003137F08F4000A168A1109280A128A11A4
:100028001528831603130A128A11FF27D500C60163
:10003800C701C801C901CA01CB01CC01CD01CE015C
:10004800CF01D001D101D201D301D401F501F601CC
:10005800F701F80183010A128A1132280A168A1553
:100068004F270A128A1183160313C401C50183128C
:100078000313A90100300A168A15E9240A128A1105
:1000880053300A168A15EE250A128A1183160313AD
:10009800C401C5014508803AFF0080307F02031D76
:1000A8005728053044020318A92983120313A9010C
:1000B80006300A168A15E9240A128A1183160313D0
:1000C8004D0883120313B200831603134C088312DE
:1000D8000313B100831603134B0883120313B000F4
:1000E800831603134A0883120313AF000A128A11F6
:1000F800AA260A128A1183120313A901A90A003039
:100108000A168A15E9240A128A1144300A168A1531
:10011800EE250A128A1183120313A901A90A0630CF
:100128000A168A15E9240A128A1183160313490844
:1001380083120313B20083160313480883120313B0
:10014800B10083160313470883120313B000831604
:100158000313460883120313AF000A168A117A257F
:100168000A128A115A300A168A15EE250A128A11BD
:1001780001300A168A15A1250A128A110130831640
:100188000313CA07003003180130CB0700300318E7
:100198000130CC07003003180130CD0780304A0603
:1001A800513003194B06031DE5284C034D04031D6C
:1001B800E5280030CD000030CC000030CB00003006
:1001C800CA00831203130819472962290A128A15DB
:1001D8008F220A128A11831203133008831603131D
:1001E800C3004308D3005308031D18290A128A11B3
:1001F80021240A128A118312031336088316031363
:10020800CD0083120313350883160313CC00831221
:100218000313340883160313CB0083120313330824
:1002280083160313CA0047295303031D39290A12E9
:100238008A157E250A128A1183120313360883163B
:100248000313C90083120313350883160313C80068
:1002580083120313340883160313C700831203138E
:10026800330883160313C600472902305306031DBB
:1002780047290A168A110E270A128A1183160313B0
:10028800C3004308D5000330831603135306031D28
:10029800EA28D3010A168A1548260A128A118312F7
:1002A8000313A90100300A168A15E9240A128A11D3
:1002B80053300A168A15EE250A128A11831603137B
:1002C8004D084906031D72294C084806031D72296A
:1002D8004B084706031D72294A084606031D76295E
:1002E800D101D10A83120313081E88298316031328
:1002F8005103031D882983120313881383160313DC
:10030800D101D401D40AD201831603135403031D67
:1003180091290130C3004308D20705305206031D56
:100328009829D101D10AD4010130C4070318C50A9C
:100338000030C5074508803AFF0080307F02031D62
:10034800A72905304402031C592883160313C40146
:10035800C5014508803AFF0080307F02031DB62999
:10036800053044020318EA2A83120313A901063050
:100378000A168A15E9240A128A11831603134D08EE
:1003880083120313B200831603134C08831203135A
:10039800B100831603134B0883120313B0008316AE
:1003A80003134A0883120313AF000A128A11AA26FC
:1003B8000A128A1183120313A901A90A00300A1626
:1003C8008A15E9240A128A114C300A168A15EE2574
:1003D8000A128A1183120313A901A90A06300A1600
:1003E8008A15E9240A128A110A168A11C1240A12E6
:1003F8008A1101300A168A15A1250A128A110130BC
:1004080083160313CA07003003180130CB070030E6
:1004180003180130CC07003003180130CD078030B5
:100428004A06513003194B06031D262A4C034D0476
:10043800031D262A0030CD000030CC000030CB0050
:100448000030CA00831203130819882AA32A0A1243
:100458008A158F220A128A11831203133008831611
:100468000313C3004308D3005308031D592A0A1273
:100478008A1121240A128A1183120313360883165B
:100488000313CD0083120313350883160313CC001E
:1004980083120313340883160313CB008312031348
:1004A800330883160313CA00882A5303031D7A2AC4
:1004B8000A128A157E250A128A1183120313360836
:1004C80083160313C9008312031335088316031315
:1004D800C80083120313340883160313C70083125A
:1004E8000313330883160313C600882A0230530601
:1004F800031D882A0A168A110E270A128A118316E2
:100508000313C3004308D5000330831603135306AF
:10051800031D2B2AD3010A168A1548260A128A11A6
:1005280083120313A90100300A168A15E9240A1256
:100538008A1134300A168A15EE250A128A11831692
:1005480003134D084906031DB32A4C084806031D2A
:10055800B32A4B084706031DB32A4A084606031D5B
:10056800B72AD101D10A83120313081EC92A831698
:1005780003135103031DC92A831203138813831617
:100588000313D101D401D40AD201831603135403EF
:10059800031DD22A0130C3004308D2070530520692
:1005A800031DD92AD101D10AD4010130C407031887
:1005B800C50A0030C5074508803AFF0080307F0231
:1005C800031DE82A05304402031CB82983160313C7
:1005D800C401C5014508803AFF0080307F02031D31
:1005E800F72A0530440203183B2883120313A90194
:1005F80006300A168A15E9240A128A11831603138B
:100608004D0883120313B200831603134C08831298
:100618000313B100831603134B0883120313B000AE
:10062800831603134A0883120313AF000A128A11B0
:10063800AA260A128A1183120313A901A90A0030F3
:100648000A168A15E9240A128A113C300A168A15F4
:10065800EE250A128A1183120313A901A90A05308B
:100668000A168A15E9240A128A110A128A157E20A6
:100678000A128A1101300A168A15A1250A128A114E
:10068800013083160313CA07003003180130CB0763
:10069800003003180130CC07003003180130CD07B3
:1006A80080304A06513003194B06031D672B4C0353
:1006B8004D04031D672B0030CD000030CC00003006
:1006C800CB000030CA00831203130819C92BE42B8E
:1006D8000A128A158F220A128A118312031330080C
:1006E80083160313C3004308D3005308031D9A2B32
:1006F8000A128A1121240A128A1183120313360856
:1007080083160313CD0083120313350883160313CE
:10071800CC0083120313340883160313CB0083120F
:100728000313330883160313CA00C92B5303031D8D
:10073800BB2B0A128A157E250A128A11831203130B
:10074800360883160313C90083120313350883166A
:100758000313C80083120313340883160313C70056
:1007680083120313330883160313C600C92B023000
:100778005306031DC92B0A168A110E270A128A115D
:1007880083160313C3004308D500033083160313ED
:100798005306031D6C2BD3010A168A1548260A1224
:1007A8008A1183120313A90100300A168A15E92455
:1007B8000A128A1134300A168A15EE250A128A118D
:1007C800831603134D084906031DF42B4C084806ED
:1007D800031DF42B4B084706031DF42B4A08460655
:1007E800031DF82BD101D10A83120313081E0A2C0A
:1007F800831603135103031D0A2C83120313881352
:1008080083160313D101D401D40AD201831603132A
:100818005403031D132C0130C3004308D2070530CD
:100828005206031D1A2CD101D10AD4010130C40784
:100838000318C50A0030C507EE2A83120313C50141
:10084800C601FF30C700FF30C800C101C201C401A2
:10085800C3010A168A1548260A128A112B300A166D
:100868008A15EE250A128A1183120313A901A90A0F
:1008780000300A168A15E9240A128A1160300A160D
:100888008A15EE250A128A1183120313A901A90AEF
:1008980045080A168A15E9240A128A110A128A15C5
:1008A80076200A128A116B3083120313B800623063
:1008B800B700B70B5D2CB80B5D2C00008312031337
:1008C800081C162D0A168A1101200A128A11831291
:1008D8000313A901A90A45080A168A15E9240A1268
:1008E8008A11013083120313C7070318C80A00309E
:1008F800C80745084604031D9D2C4808803AFF0098
:1009080080307F02031D8A2C03304702031C902C81
:1009180083120313C701C801831203134708B700E2
:100928003708C4004708303E0A168A1540250A12BF
:100938008A118312031345034604031DD02C023089
:100948004406031DB22C4808803AFF0080307F021D
:10095800031DB02C043047020318BF2C8312031365
:100968004808803AFF0080307F02031DBD2C0A3002
:100978004702031CC32C83120313C701C801831247
:1009880003134708B7003708C3004708303E0A1664
:100998008A1540250A128A1103308312031345066B
:1009A8004604031DF32C4808803AFF0080307F027C
:1009B800031DE02C06304702031CE62C83120313A8
:1009C800C701C801831203134708B7003708C100DD
:1009D8004708303E0A168A1540250A128A11043043
:1009E8008312031345064604031D162D4808803A52
:1009F800FF0080307F02031D032D0A304702031CCD
:100A0800092D83120313C701C80183120313470872
:100A1800B7003708C2004708303E0A168A15402535
:100A28000A128A1183120313881CA12DA901A90A8D
:100A380045080A168A15E9240A128A110A168A1123
:100A480001200A128A11FF3083120313C707031803
:100A5800C80AFF30C80745084604031D442DC81FAF
:100A6800392D0230C7000030C8004708B7003708E2
:100A7800C4004708303E0A168A1540250A128A1112
:100A88008312031345034604031D622D02304406F6
:100A98000319C81F512D0330542DC81F572D093075
:100AA800C7000030C8004708B7003708C300470828
:100AB800303E0A168A1540250A128A11033083121D
:100AC800031345064604031D7A2DC81F6F2D0530F4
:100AD800C7000030C8004708B7003708C1004708FA
:100AE800303E0A168A1540250A128A1104308312EC
:100AF800031345064604031DA12DC81F872D093081
:100B0800C7000030C8004708B7003708C2004708C8
:100B1800303E0A168A1540250A128A1183120313D9
:100B2800A901A90A45080A168A15E9240A128A1190
:100B38000A128A1576200A128A1183120313081DD5
:100B4800DD2DC81BB12D0130C5070318C60A0030BA
:100B5800C607FF30C700FF30C8000230450646040C
:100B6800031DBD2D0130C5070318C60A0030C6078E
:100B7800CE2D4608803AFF0080307F02031DC62D27
:100B880005304502031CCE2D053083120313C50022
:100B98000030C60083120313A901A90A45080A16E2
:100BA8008A15E9240A128A110A128A1576200A126D
:100BB8008A1183120313881D172EC81BED2DFF30D1
:100BC800C5070318C60AFF30C607FF30C700FF3045
:100BD800C800023045064604031DF92DFF30C5073D
:100BE8000318C60AFF30C607082E4608803AFF00D9
:100BF80080307F02031D022E013045020318082EA3
:100C080083120313C501C60183120313A901A90A9C
:100C180045080A168A15E9240A128A110A128A1541
:100C280076200A128A11831203134608803AFF00BD
:100C380080307F02031D222E05304502031C572CED
:100C48000A168A1101200A128A1183120313410815
:100C5800B700B8013708A0003808A1000A30A20080
:100C68000030A3000A168A157E250A128A118312FB
:100C7800031342082007BF00003003180130210782
:100C8800C0004008A1003F08A0003C30A20000308E
:100C9800A3000A168A157E250A128A1183120313E5
:100CA8002008B7002108B8000030B81BFF30B90091
:100CB800BA000A30A2000030A3004408BB00BC01FF
:100CC8003B08A0003C08A1000A168A157E250A12D6
:100CD8008A118312031343082007BD00003003184C
:100CE80001302107BE003D08A6003E08A7000030DD
:100CF800A71BFF30A800A9000030AD000030AC00F1
:100D08000E30AB001030AA000A168A15C0260A1247
:100D18008A11831203132608B70727080318270F19
:100D2800962E972EB80728080318280F9C2E9D2E5C
:100D3800B90729080318290ABA073A08B600390872
:100D4800B5003808B4003708B30008000030831233
:100D58000313A3000030A2000E30A1001030A00041
:100D68003208A7003108A6003008A5002F08A40003
:100D78000A168A11A7210A128A118312031321085D
:100D8800BE002008BD003E08A1003D08A0001030AC
:100D9800A2000E30A3000A168A157E250A128A11AF
:100DA800831203132009B3002109B400B30A0319FD
:100DB800B40A2F083307C10030080318300A340773
:100DC800C2003C30A0000030A1004208A300410846
:100DD800A2000A168A1582260A128A1183120313A0
:100DE8002108C0002008BF004008A1003F08A0005B
:100DF8003C30A2000030A3000A168A157E250A128C
:100E08008A11831203132009B3002109B400B30A1D
:100E18000319B40A41083307C10042080318420AFB
:100E28003407C2004208BC004108BB000A30A000D9
:100E38000030A1003E08A3003D08A2000A168A154A
:100E480082260A128A11831203132008B30033087A
:100E5800BA000A30A0000030A1003E08A3003D08F7
:100E6800A2000A128A11CB270A128A1183120313CD
:100E78002008B3003308B9000A30A0000030A100F0
:100E88004008A3003F08A2000A168A1582260A1203
:100E98008A11831203132008B3003308B8000A30FC
:100EA800A0000030A1004008A3003F08A2000A12D9
:100EB8008A11CB270A128A11831203132008B30060
:100EC8003308B7000A30A0000030A1003C08A30096
:100ED8003B08A2000A168A1582260A128A11831272
:100EE80003132008B3003308B6000A30A00000300E
:100EF800A1003C08A3003B08A2000A128A11CB27D4
:100F08000A128A11831203132008B3003308B500AC
:100F18003A08303E0A168A1540250A128A118312A9
:100F280003133908303E0A168A1540250A128A1119
:100F38003A300A168A1540250A128A1183120313B9
:100F48003808303E0A168A1540250A128A1183127B
:100F580003133708303E0A168A1540250A128A11EB
:100F68003A300A168A1540250A128A118312031389
:100F78003608303E0A168A1540250A128A1183124D
:100F880003133508303E0A168A15402508008312D7
:100F98000313200821040319FA2FA501A50AA11B90
:100FA800E12F01300310A00DA10DFF3E031DD62F28
:100FB8000130A4002408A507D32F21082302031D0C
:100FC800E72F20082202031CEF2F2008A202210885
:100FD800031CA303A30201300310A10CA00CFF3EC5
:100FE800031DF02F0130A502031DE12F2308A100E6
:100FF8002208A0000800433408308A000408840A44
:1010080082070034433465346E3474346934673489
:10101800723461346434653400344634613468347D
:10102800723465346E346834653469347434003429
:10103800743465346D34703420346D346F346434F2
:1010480065340034733465347434203461346C345A
:10105800613472346D34003473346534743420343C
:10106800743469346D3465340034743469346D34DF
:10107800653420343A3420340034743465346D34A3
:10108800703420343A342034003461346C346134A0
:1010980072346D343A3420340034523448343A349B
:1010A8002034203420340034743469346D34653489
:1010B8003A3420340034203420342034203420348E
:1010C80000345F345F343A345F345F34003464345E
:1010D8006534673420340034453452345234003493
:1010EC0083120313A0010F300A168A11C9220800BB
:1010FC0000300A168A15DB240A128A150030831276
:10110C000313BC00C830BD004230BE00C030AC0080
:10111C007F30AD004430AE000A168A1510250A1235
:10112C008A15831203132108A9002008A8000A16A7
:10113C008A1528250A128A15831203132808AF0072
:10114C002908B0002A08B1000A168A1109240A12CB
:10115C008A15831203132C08BF002D08C0002E081B
:10116C00C1000A168A113B260A128A158312031330
:10117C003C0883160313C000831203133D08831627
:10118C000313C100831203133E0883160313C2001A
:10119C00003083120313CC002030CD00C230CE00BF
:1011AC000030AC00C830AD004230AE000030BC00A6
:1011BC00B430BD004230BE008316031340088312C6
:1011CC000313BF0083160313410883120313C000DB
:1011DC0083160313420883120313C1000A168A11E3
:1011EC003B260A128A15831203133C08AF003D08F4
:1011FC00B0003E08B1000A168A1109240A128A1599
:10120C00831203132C08CF002D08D0002E08D10018
:10121C000A128A1586210A128A15831203134C08A6
:10122C0083160313C000831203134D088316031394
:10123C00C100831203134E0883160313C2004630F9
:10124C005506031D6C29400883120313BF00831637
:10125C000313410883120313C000831603134208BF
:10126C0083120313C1006630BC00E630BD003F3072
:10127C00BE000A168A113B260A128A158312031322
:10128C003C08CF003D08D0003E08D1000030CC0017
:10129C000030CD004230CE000A128A1586210A1287
:1012AC008A15831203134C08D9004D08DA004E0836
:1012BC00DB000A168A1119210A128A1583120313EC
:1012CC00590883160313BF003F08D5004008A0003F
:1012DC004108A1004208A200A301A30A0A128A1520
:1012EC009A230A128A1566300A168A15EE250A12F6
:1012FC008A158316031355080A168A15402508000B
:10130C00831203134C08D2004D08D3004E08D400AE
:10131C000310530D540DD5005508D8004F08D200BA
:10132C005008D3005108D4000310530D540DD500B0
:10133C005508D70058080319AF2957085802031845
:10134C00B6295803FF3A5707D20019305202031C32
:10135C00B6294F08CC005008CD005108CE0008002B
:10136C00570803190800580857020318C5295703D2
:10137C00FF3A5807D2001930520203180800063001
:10138C00D2005208D600CE1BD617D11B5617CD173C
:10139C00FF30CC05FF30CD050030CE05D017FF3027
:1013AC00CF05FF30D0050030D1055708580203187F
:1013BC00052A01300310CF0DD00DD10DFF3E031DBA
:1013CC00E0290130D702570858060319002A0130CA
:1013DC00D602560807390319002ADF2901300310F9
:1013EC00CE0CCD0CCC0CFF3E031DF5290130D200E8
:1013FC005208D8075808570603192E2AF4295808FA
:10140C00570203182E2A01300310CC0DCD0DCE0D32
:10141C00FF3E031D0A2A0130D8025708580603194B
:10142C002A2A0130D6025608073903192A2A092A12
:10143C0001300310D10CD00CCF0CFF3E031D1F2A22
:10144C000130D2005208D70758085706031D1E2A30
:10145C00D61F402AFF30CC06FF30CD06FF30CE061B
:10146C000130CC07003003180130CD0700300318D1
:10147C000130CE07561F522AFF30CF06FF30D00660
:10148C00FF30D1060130CF07003003180130D007F0
:10149C00003003180130D107D6014C08CF074D0896
:1014AC00031103184D0A031DD0074E08031103182E
:1014BC004E0A031DD107D11F752AFF30CF06FF300E
:1014CC00D006FF30D1060130CF07003003180130B1
:1014DC00D007003003180130D107D601D60A4F08C7
:1014EC00A0005008A1005108A2005808D2005208D0
:1014FC00A3005608D3005308A4000A168A11AB2087
:10150C00831203132008CC002108CD002208CE0042
:10151C00080083120313B801B9010130B600003082
:10152C00B700B401B5010A168A1548260A128A15A5
:10153C0083120313A90100300A168A15E9240A1232
:10154C008A153E300A168A1540250A128A1583120E
:10155C000313A90102300A168A15E9240A128A1506
:10156C00831603134E080A168A15EE250A128A15DD
:10157C0083120313A901A90A02300A168A15E92459
:10158C000A128A15831603134F080A168A15EE25BC
:10159C000A128A156B3083120313B3006230B20047
:1015AC00B20BD62AB30BD62A000083120313081CE5
:1015BC00342B0A168A1548260A128A15831203132D
:1015CC00A90100300A168A15E9240A128A153E3040
:1015DC000A168A1540250A128A1583120313A901CB
:1015EC0002300A168A15E9240A128A15831203138B
:1015FC003808CE3E8400831300080A168A15EE259F
:10160C000A128A1583120313A901A90A02300A16B9
:10161C008A15E9240A128A15831203133608CE3E62
:10162C008400831300080A168A15EE250A128A15FF
:10163C00831203133908B5003808B400380839048C
:10164C000319342B0130B8020030031CB903B90262
:10165C000130B6020030031CB703B702881C8C2B78
:10166C000A168A1548260A128A1583120313A90131
:10167C0002300A168A15E9240A128A1583120313FA
:10168C003808CE3E8400831300080A168A15EE250E
:10169C000A128A1583120313A901A90A00300A162B
:1016AC008A15E9240A128A153E300A168A15402535
:1016BC000A128A1583120313A901A90A02300A1609
:1016CC008A15E9240A128A15831203133608CE3EB2
:1016DC008400831300080A168A15EE250A128A154F
:1016EC00831203133708B5003608B40038083904E0
:1016FC00031D8C2B0130B8070318B90A0030B90749
:10170C000130B6070318B70A0030B707081D932B32
:10171C003508B1003408B0000800881DD02A033009
:10172C00B0000030B100080083160313BB01BA01EE
:10173C00B201B20ABD01200883120313A000831664
:10174C000313210883120313A10083160313220829
:10175C0083120313A2000030A3000030A400003059
:10176C00A5000A168A15A1270A128A150318C22B7E
:10177C0083160313BA01BA0A83160313BE01230896
:10178C003E020318FF2B003083120313BC002030E1
:10179C00BD004130BE0083160313200883120313CF
:1017AC00BF0083160313210883120313C000831692
:1017BC000313220883120313C1000A168A113B2655
:1017CC000A128A15831203133C0883160313A00014
:1017DC00831203133D0883160313A1008312031312
:1017EC003E0883160313A2000130A4002408BE0790
:1017FC00C52B3A080319622C003083120313D9004D
:10180C000030DA003F30DB0083160313200883120C
:10181C000313DC0083160313210883120313DD006A
:10182C0083160313220883120313DE000A168A158B
:10183C005D250A128A1583120313590883160313A4
:10184C00A000831203135A0883160313A1008312FA
:10185C0003135B0883160313A200003083120313D7
:10186C00BC008030BD00BF30BE00831603132008BF
:10187C0083120313BF00831603132108831203136F
:10188C00C00083160313220883120313C1000A1627
:10189C008A113B260A128A15831203133C088316FD
:1018AC000313A000831203133D0883160313A10036
:1018BC00831203133E08902C003083120313CC00C8
:1018CC000030CD003F30CE00831603132008831266
:1018DC000313CF0083160313210883120313D000C4
:1018EC0083160313220883120313D1000A128A15DC
:1018FC0086210A128A15831203134C0883160313CC
:10190C00A000831203134D0883160313A100831246
:10191C0003134E0883160313A2002008831203132B
:10192C00D90083160313210883120313DA008316DC
:10193C000313220883120313DB000A168A111921E0
:10194C000A128A15831203135C08EA005B08E9008B
:10195C005A08E8005908E7000A30EB000030EC00A8
:10196C00A6300A168A1518260A128A15831603132E
:10197C003B08A63E8400831300080319CC2C0130CD
:10198C0083160313A4002408BB07BC2C05303B02B0
:10199C00031CD52C6B300A168A15EE25080083160D
:1019AC0003132303FF3A3B07A4002408BC003A08A6
:1019BC000319FD2CBE01E62C0130A4002408BE073F
:1019CC003B083E020318FD2C3E08A63E8400303036
:1019DC00831300060319E22C2D30A4003D08B33EFE
:1019EC008400240880000130A4002408BD073C08B2
:1019FC00803A7F3E031C272DBE013C08A400A501A4
:101A0C00A41BA5032508803A803C031D0F2D240838
:101A1C003E020318352D831603133E08A63E8400A0
:101A2C0083130008A4003D08B33E84002408800002
:101A3C000130A4002408BD070130A4002408BE070F
:101A4C00032D303083160313A4003D08B33E8400ED
:101A5C002408831380000130A4002408BD078316DA
:101A6C00031323080319742D2E30A4003D08B33E34
:101A7C0084002408831380000130A4002408BD07CF
:101A8C00BC1F592D3030A4003D08B33E84002408FF
:101A9C0080000130A4002408BD070130A4002408F4
:101AAC00BC07BC1B482D3C08A4002408BE003B0806
:101ABC003E020318742D3E08A63E84000008A400C4
:101ACC003D08B33E8400240880000130A4002408A3
:101ADC00BD070130A4002408BE075D2D3D08B33EB0
:101AEC00840083138001B3300A168A15C5250800BB
:101AFC0083120313C501C601FF30C700FF30C800B5
:101B0C00C101C201C401C3010A168A1548260A1272
:101B1C008A1521300A168A15EE250A128A158312A7
:101B2C000313A901A90A00300A168A15E9240A121E
:101B3C008A1560300A168A15EE250A128A15831248
:101B4C000313A901A90A45080A168A15E9240A12E1
:101B5C008A150A128A1576200A128A15EB3083121E
:101B6C000313B8000D30B700B70BBA2DB80BBA2D54
:101B7C0083120313081C722E0A168A1101200A12F2
:101B8C008A1583120313A901A90A45080A168A1596
:101B9C00E9240A128A15013083120313C7070318AC
:101BAC00C80A0030C80745084604031DF92D48082B
:101BBC00803AFF0080307F02031DE62D0330470280
:101BCC00031CEC2D83120313C701C80183120313EA
:101BDC004708B7003708C4004708303E0A168A1574
:101BEC0040250A128A158312031345034604031D6C
:101BFC002C2E02304406031D0E2E4808803AFF009E
:101C0C0080307F02031D0C2E0430470203181B2E5C
:101C1C00831203134808803AFF0080307F02031DB3
:101C2C00192E0A304702031C1F2E83120313C701FF
:101C3C00C801831203134708B7003708C3004708CD
:101C4C00303E0A168A1540250A128A150330831273
:101C5C00031345064604031D4F2E4808803AFF0027
:101C6C0080307F02031D3C2E06304702031C422E9F
:101C7C0083120313C701C801831203134708B7006B
:101C8C003708C1004708303E0A168A1540250A124B
:101C9C008A1504308312031345064604031D722E65
:101CAC004808803AFF0080307F02031D5F2E0A3007
:101CBC004702031C652E83120313C701C80183124C
:101CCC0003134708B7003708C2004708303E0A160E
:101CDC008A1540250A128A1583120313881CFD2EBF
:101CEC00A901A90A45080A168A15E9240A128A15B7
:101CFC000A168A1101200A128A15FF308312031367
:101D0C00C7070318C80AFF30C80745084604031D57
:101D1C00A02EC81F952E0230C7000030C8004708FF
:101D2C00B7003708C4004708303E0A168A1540250C
:101D3C000A128A158312031345034604031DBE2E93
:101D4C00023044060319C81FAD2E0330B02EC81F35
:101D5C00B32E0930C7000030C8004708B700370859
:101D6C00C3004708303E0A168A1540250A128A1508
:101D7C0003308312031345064604031DD62EC81FD9
:101D8C00CB2E0530C7000030C8004708B700370815
:101D9C00C1004708303E0A168A1540250A128A15DA
:101DAC0004308312031345064604031DFD2EC81F81
:101DBC00E32E0930C7000030C8004708B7003708C9
:101DCC00C2004708303E0A168A1540250A128A15A9
:101DDC0083120313A901A90A45080A168A15E924D6
:101DEC000A128A150A128A1576200A128A1583128B
:101DFC000313081D392FC81B0D2F0130C5070318FD
:101E0C00C60A0030C607FF30C700FF30C8000230DA
:101E1C0045064604031D192F0130C5070318C60AD1
:101E2C000030C6072A2F4608803AFF0080307F0218
:101E3C00031D222F05304502031C2A2F0530831267
:101E4C000313C5000030C60083120313A901A90AAD
:101E5C0045080A168A15E9240A128A150A128A15E7
:101E6C0076200A128A1583120313881D6D2FFF30FA
:101E7C00C5070318C60AFF30C607023045064604DC
:101E8C00031D4F2FFF30C5070318C60AFF30C607C6
:101E9C005E2F4608803AFF0080307F02031D582FCA
:101EAC000130450203185E2F83120313C501C601CE
:101EBC0083120313A901A90A45080A168A15E924F5
:101ECC000A128A150A128A1576200A128A158312AA
:101EDC0003134608803AFF0080307F02031D782FE1
:101EEC0005304502031CB42D0A168A1101200A1272
:101EFC008A15831203134108B700B8013708A000F4
:101F0C003808A1000A30A2000030A3000A168A1576
:101F1C007E250A128A158312031342082007BF007C
:101F2C000030031801302107C0004008A1003F0811
:101F3C00A0003C30A2000030A3000A168A157E25B2
:101F4C000A128A15831203132008B7002108B8005F
:101F5C000030B81BFF30B900BA000A30A2000030C4
:101F6C00A3004408BB00BC013B08A0003C08A10036
:101F7C000A168A157E250A128A1583120313430842
:101F8C002007BD000030031801302107BE003D08BA
:101F9C00A6003E08A7000030A71BFF30A800A90030
:101FAC000030AD000030AC000E30AB001030AA0099
:101FBC000A168A15C0260A128A15831203132608DC
:101FCC00B70727080318270FEC2FED2FB8072808A1
:101FDC000318280FF22FF32FB90729080318290A21
:101FEC00BA073A08B6003908B5003808B400370803
:041FFC00B300080026
:1020020083120313A0010C300A168A11C922080098
:10201200081F3528831603135103031D3528143076
:102022007802031831280130F0007008F707831294
:1020320003138101193077020318212888173528E4
:102042004B30770203182728881335284B30770244
:10205200031C3528F7010130F0007008F807352815
:1020620083160313D101F8010B110B1C3F288312B5
:10207200861F3E2840308806F8010B107408831230
:10208200FF0073088A0072088400710E8300FE0E3E
:102092007E0E0900003083120313AC000030AB0047
:1020A2000030AA000030A9002308220421042004E1
:1020B2000319A228AD01AD0AA31B6D280130A800A7
:1020C2000310A00DA10DA20DA30DA80B61280130D4
:1020D200A8002808AD075D280130A8000310A90D4B
:1020E200AA0DAB0DAC0DA80B6F2823082702031D08
:1020F200842822082602031D842821082502031DA4
:10210200842820082402031C95282008A402210800
:10211200031C210FA5022208031C220FA60223087A
:10212200031C230FA702291401300310A30CA20CD5
:10213200A10CA00CFF3E031D96280130AD02031D29
:102142006D282C08A3002B08A2002A08A100290848
:10215200A00008008312031323080319B5282208DC
:1021620021042004031DC8280030A0000030A10073
:102172000030A20008000130A5002508A3070130A5
:102182000310A20CA10CA00CFF3E031DC128FE30BF
:1021920022050319E328BC280130A5002508A3075E
:1021A2000130A007003003180130A10700300318E6
:1021B2000130A20701300310A20CA10CA00CFF3EBB
:1021C200031DDC28FF3022050319F228CD28013037
:1021D200A30201300310A00DA10DA20DFF3E031DAD
:1021E200EB28A11BF828023023020318E828231841
:1021F2000029FF30A0057F30A105FF30A2050310A2
:10220200A30C2308A500A601A70110300310A50DF9
:10221200A60DA70DFF3E031D07292508A0042608C9
:10222200A1042708A204240803190800A217080021
:10223200831203135908DD005A08DE005B08DF0031
:1022420003105E0D5F0DE0006008E6006608031DE6
:1022520033290030DC000030DB000030DA000030CF
:10226200D90008005908DD005A08DE005B08DF00CB
:1022720017300310DF0CDE0CDD0CFF3E031D3A2984
:102282005D08E0006008E100DA17FF30D905FF3091
:10229200DA050030DB055908E2005A08E3005B0862
:1022A200E400E5018E30E602E61F75296608803AF1
:1022B2008F3E031865290030DC000030DB0000305F
:1022C200DA000030D900080001300310E50CE40CFC
:1022D200E30CE20CFF3E031D66290130DD005D08C0
:1022E200E60703199029652918306602031C8D2917
:1022F2000030DC000030DB000030DA000030D900B2
:1023020008000130DD000310E20DE30DE40DE50DE0
:10231200DD0B84290130E6026608031D822961086B
:1023220003199E29E209E309E409E509E20A03190E
:10233200E30A0319E40A0319E50A6508DC006408E4
:10234200DB006308DA006208D90008008312031375
:10235200AA01A31FB929A009A109A209A309A00AD8
:102362000319A10A0319A20A0319A30AAA01AA0AB4
:10237200A71FCA29A409A509A609A709A40A03191E
:10238200A50A0319A60A0319A70A0130A8002808FA
:10239200AA060030AE000030AD000030AC000030C4
:1023A200AB00230822042104200403191F2AA901D7
:1023B200A90AA31BEA290130A8000310A00DA10D50
:1023C200A20DA30DA80BDE290130A8002808A90739
:1023D200DA290130A8000310AB0DAC0DAD0DAE0D26
:1023E200A80BEC2923082702031D012A2208260232
:1023F200031D012A21082502031D012A20082402A7
:10240200031C122A2008A4022108031C210FA50282
:102412002208031C220FA6022308031C230FA70273
:102422002B1401300310A30CA20CA10CA00CFF3E34
:10243200031D132A0130A902031DEA292A080319E0
:102442002D2AAB09AC09AD09AE09AB0A0319AC0AD6
:102452000319AD0A0319AE0A2E08A3002D08A20023
:102462002C08A1002B08A000080083120313BA0055
:102472003108B8003008B7002F08B6002E08B500A2
:102482003208A0003308A1000030A11BFF30A200D7
:10249200A3003808A7003708A6003608A5003508AB
:1024A200A4000A168A114B200A168A1183120313FA
:1024B2002308B8002208B7002108B6002008B5009A
:1024C2000130B4003408BA0738083704360435043A
:1024D200031D412A3A088400831380010130BA02A5
:1024E2003208A0003308A1000030A11BFF30A20077
:1024F200A3003108A7003008A6002F08A5002E0867
:10250200A4000A168A1501270A168A1183120313D8
:102512002008B4003408B9003208A0003308A10032
:102522000030A11BFF30A200A3003108A700300831
:10253200A6002F08A5002E08A4000A168A114B2017
:102542000A168A11831203132308B1002208B0006D
:102552002108AF002008AE000A303902031CB52A58
:102562000730B4003408B9073030B4003408B90772
:102572003908B4003A08840034088313800001301B
:10258200BA02310830042F042E0403190800712AFC
:1025920083120313A500A60100308B1B0130A20099
:1025A2008B1383160313060883120313A100210859
:1025B200A300831603138601831203132003031D52
:1025C200E62A1030A1002108A6002508A100210852
:1025D200A4002408A10004300310A10CFF3E031D37
:1025E200ED2A2108260486008616A701A8010030DC
:1025F200280202300319270203180C2B0130A70707
:102602000318A80A0030A807003028020230031974
:102612002702031CFF2A8612A701A8010030280204
:102622000230031927020318232B0130A7070318CE
:10263200A80A0030A8070030280202300319270236
:10264200031C162B25080F39260486008616A701BF
:10265200A8010030280202300319270203183E2B7A
:102662000130A7070318A80A0030A8070030280283
:10267200023003192702031C312B8612A701A8017D
:10268200003028020230031927020318552B0130AB
:10269200A7070318A80A0030A80700302802023052
:1026A20003192702031C482B1030860023088316C7
:1026B20003138600831203130608A1002108A40055
:1026C2000B108B102208031908008B1708008312C5
:1026D2000313A00133300A168A11C9220A168A117D
:1026E20083120313AB01AC0103302C02E83003194F
:1026F2002B020318892B0130AB070318AC0A0030F8
:10270200AC0703302C02E83003192B02031C7C2B8C
:10271200A00132300A168A11C9220A168A118312BE
:102722000313AB01AC0103302C02E83003192B0276
:102732000318A82B0130AB070318AC0A0030AC0712
:1027420003302C02E83003192B02031C9B2BA0013F
:102752002C300A168A11C9220A168A11831203130F
:10276200AB01AC0103302C02E83003192B02031831
:10277200C72B0130AB070318AC0A0030AC0703309B
:102782002C02E83003192B02031CBA2BA0010630DD
:102792000A168A11C9220A168A1183120313AB017F
:1027A200AC0103302C02E83003192B020318E62B8C
:1027B2000130AB070318AC0A0030AC0703302C021F
:1027C200E83003192B02031CD92BA0010C300A1686
:1027D2008A11C9220A168A1183120313AB01AC01B2
:1027E20003302C02E83003192B020318052C0130A8
:1027F200AB070318AC0A0030AC0703302C02E830F8
:1028020003192B02031CF82B0A168A154826080006
:10281200831203132F08B2003008B3003108B4004A
:102822000310330D340DB5003508BA003A08031D04
:10283200212C0030AC000030AD000030AE000800AA
:102842002C08B2002D08B3002E08B4000310330D7B
:10285200340DB5003508BB003B08031D372C003092
:10286200AC000030AD000030AE0008000030B70010
:102872000030B8000030B90089303B07B20032089E
:10288200BA022F08B2003008B3003108B400103089
:102892000310B40CB30CB20CFF3E031D492C3208DA
:1028A200B5003508BB002C08B2002D08B3002E0875
:1028B200B40010300310B40CB30CB20CFF3E031D75
:1028C2005B2C3208B5003508BB068030B2003208F6
:1028D200BB05B017FF30AF05FF30B0050030B105C2
:1028E200AD17FF30AC05FF30AD050030AE05183036
:1028F200B2003208B60001300310B70DB80DB90DA1
:10290200FF3E031D7D2C2E083102031D8E2C2D0847
:102912003002031D8E2C2C082F02031C9B2C2C082A
:10292200AF022D08031C2D0FB0022E08031C2E0A25
:10293200B102371401300310AF0DB00DB10DFF3EDF
:10294200031D9C2C0130B602031D7C2C3708A0000D
:102952003808A1003908A2003A08B2003208A300E0
:102962003B08B3003308A4000A168A11AB20831275
:1029720003132008AC002108AD002208AE000800B5
:1029820001300A168A15DB240A168A1100308312D6
:102992000313BC00C830BD004230BE00C030AC00E2
:1029A2007F30AD004430AE000A168A1510250A1693
:1029B2008A11831203132108A9002008A8000A160D
:1029C2008A1528250A168A11831203132808AF00D4
:1029D2002908B0002A08B1000A168A1109240A1629
:1029E2008A11831203132C08BF002D08C0002E0881
:1029F200C1000A168A113B260A168A118312031392
:102A02003C0883160313BF00831203133D08831689
:102A12000313C000831203133E0883160313C1007D
:102A2200003083120313CC002030CD004130CE00A1
:102A32000030AC00C830AD004230AE000030BC0007
:102A4200A030BD004230BE00831603133F0883123C
:102A52000313BF0083160313400883120313C0003D
:102A620083160313410883120313C1000A168A1145
:102A72003B260A168A11831203133C08AF003D0855
:102A8200B0003E08B1000A168A1109240A168A11FA
:102A9200831203132C08CF002D08D0002E08D1007A
:102AA2000A128A1586210A168A11831203134C0808
:102AB20083160313BF00831203134D0883160313F7
:102AC200C000831203134E0883160313C1003F088C
:102AD200A0004008A1004108A200A301A30A0A1213
:102AE2008A159A230A168A1125300A168A15402554
:102AF2000800003083120313A3000030A2000E303E
:102B0200A1001030A0003208A7003108A60030084A
:102B1200A5002F08A4000A168A11A7210A168A11F5
:102B2200831203132108BE002008BD003E08A10045
:102B32003D08A0001030A2000E30A3000A168A152C
:102B42007E250A168A11831203132009B300210974
:102B5200B400B30A0319B40A2F083307B5003008CA
:102B62000318300A3407B6003C30A0000030A10040
:102B72003608A3003508A2000A168A1582260A160C
:102B82008A11831203132108BC002008BB000A30FB
:102B9200A0000030A1003C08A3003B08A2000A12DA
:102BA2008A11CB270A168A11831203132008B30055
:102BB2003308BA000A30A0000030A1003C08A3008C
:102BC2003B08A2000A168A1582260A168A11831267
:102BD20003132008B3003308B9000A30A000003004
:102BE200A1003E08A3003D08A2000A128A11CB27C9
:102BF2000A168A11831203132008B3003308B8009F
:102C02000A30A0000030A1003E08A3003D08A20047
:102C12000A168A1582260A168A11831203132008BD
:102C2200B3003308B7003708303E0A168A1540252C
:102C32000A168A11831203133808303E0A168A15BF
:102C420040250A168A113A300A168A1540250A16B4
:102C52008A11831203133908303E0A168A15402559
:102C62000A168A11831203133A08303E0A168A158D
:102C720040250800831203133C08C2003D08C3002C
:102C82003E08C4000310430D440DC5004508C600AC
:102C92004608031D532E0030BC000030BD0000303A
:102CA200BE0008003F08C2004008C3004108C4003B
:102CB2000310430D440DC5004508CB004B08031D0E
:102CC200692E0030BC000030BD000030BE0008009C
:102CD2004B087B3EC2004208C6073C08C2003D08C2
:102CE200C3003E08C40010300310C40CC30CC20C55
:102CF200FF3E031D752E4208C5004508CB003F0864
:102D0200C2004008C3004108C40010300310C40CC4
:102D1200C30CC20CFF3E031D872E4208C5004508A6
:102D2200CB068030C2004208CB05BD17C017FF306A
:102D3200BF05FF30C0050030C1050030C7000030BC
:102D4200C8000030C9000730C2004208CA003C1C5B
:102D5200B82E3F08C707400803110318400A031D95
:102D6200C807410803110318410A031DC9070130AE
:102D72000310BE0CBD0CBC0CFF3E031DB92E01306E
:102D82000310BF0DC00DC10DFF3E031DC12E01304A
:102D9200CA02031DA82E0930C2004208CA003C1C08
:102DA200E02E3F08C707400803110318400A031D1D
:102DB200C807410803110318410A031DC90701305E
:102DC2000310BE0CBD0CBC0CFF3E031DE12E0130F6
:102DD2000310C90CC80CC70CFF3E031DE92E0130BD
:102DE200CA02031DD02E4708A0004808A1004908C6
:102DF200A2004608C2004208A3004B08C3004308D1
:102E0200A4000A168A11AB20831203132008BC0007
:102E12002108BD002208BE00080083120313B60178
:102E2200B7010130B4000030B500B201B3010A1697
:102E32008A1548260A168A1183120313A901003043
:102E42000A168A15E9240A168A113E300A168A15CC
:102E520040250A168A1183120313A90102300A16A9
:102E62008A15E9240A168A1175080A168A15EE25AA
:102E72000A168A1183120313A901A90A02300A163B
:102E82008A15E9240A168A1176080A168A15EE2589
:102E92000A168A116B3083120313B1006230B0003C
:102EA200B00B512FB10B512F000083120313081CDA
:102EB200AD2F0A168A1548260A168A1183120313A1
:102EC200A90100300A168A15E9240A168A113E3031
:102ED2000A168A1540250A168A1183120313A901BC
:102EE20002300A168A15E9240A168A11831203137C
:102EF2003608753E840000080A168A15EE250A1661
:102F02008A1183120313A901A90A02300A168A152B
:102F1200E9240A168A11831203133408753E8400C9
:102F220000080A168A15EE250A168A11831203135F
:102F32003708B3003608B200360837040319AD2F3C
:102F42000130B6020030031CB703B7020130B402ED
:102F52000030031CB503B502881CF32F0A168A152C
:102F620048260A168A1183120313A90102300A168F
:102F72008A15E9240A168A11831203133608753E4C
:102F8200840000080A168A15EE250A168A11831291
:102F92000313A901A90A00300A168A15E9240A16A0
:102FA2008A113E300A168A1540250A168A118312A2
:102FB2000313A901A90A02300A168A15E9240A167E
:102FC2008A11831203133408753E840000080A161E
:102FD2008A15EE250A168A11831203133508B300E7
:102FE2003408B200081DFD2F32083304031DFB2FE5
:0E2FF2004330080046300800881908004B2FB5
:1039B60083120313A1002108A000A00DA00DA00DE5
:1039C6001F082006C73920069F000800831203132C
:1039D600AB002908031DF12C8030F22CC030AA0060
:1039E6002A08A900A0012B0829070A168A11C9224C
:1039F600080003308316031385001F138312031375
:103A06001F083F3940389F00831603139F17F03075
:103A16009F05831203131F14080005308312031336
:103A2600A200A20B142D831203131F151F19192DA3
:103A36001E08A400831603131E0883120313A30093
:103A46002408A1002308A0000800831203132808F5
:103A5600A0002908A100A2018E30AB002B08A3000C
:103A6600A4010A168A11AB20831203132008A800AA
:103A76002108A9002208AA00080083120313A9003E
:103A8600A001A00A29080A168A11C9220A168A154F
:103A960083120313AA01AB0100302B02C8300319AD
:103AA6002A02031808000130AA070318AB0A0030DF
:103AB600AB074F2D831203135B085A0459040319ED
:103AC600662D8030DB065C08CC005D08CD005E0804
:103AD600CE005908CF005A08D0005B08D1000A1260
:103AE6008A158621831203134C08D9004D08DA0083
:103AF6004E08DB00080083120313A401A501201C55
:103B06008A2D2208A4070318A50A2308A507013051
:103B16000310A20DA30DFF3E031D8B2D01300310D4
:103B2600A10CA00CFF3E031D922D20082104031DAD
:103B3600822D2508A1002408A00008008312031383
:103B4600A20030309000A301A4012208A000A10128
:103B56000310A00DA10D21082402031DB42D200879
:103B6600230203180800101038308F008E0110143D
:103B76000C1CBB2D0C100130A3070318A40A00303F
:103B8600A407A82D83120313AE00FF30AC002C0847
:103B9600B000AF0130080319080010302F020318D7
:103BA60008002F082E07AC002C0884008313000899
:103BB600AD002D08B00030080319E72D30080A16AD
:103BC6008A1540250A168A15013083120313AC00A4
:103BD6002C08AF07CD2D83120313AF00FF30AC00C6
:103BE6002C08AE00AD012E080319080010302D0276
:103BF600031808002D082F0784000A128A150020D2
:103C06000A168A15AC002C08AE002E080319112ED0
:103C16002E080A168A1540250A168A1501308312BF
:103C26000313AC002C08AD07F62D83120313EF0027
:103C36006F08ED006D08EE00EA1F372E2D30ED00FF
:103C46006F0884006D08831380000130ED006D0855
:103C5600EF07E709E809E909EA09E70A0319E80AA3
:103C66000319E90A0319EA0A6A08B1006908B000EB
:103C76006808AF006708AE006C08B3006B08B200B6
:103C86006F080A168A113622080083120313A00150
:103C960001300A168A11C9220A168A1583120313DD
:103CA600A901AA0103302A02E830031929020318E0
:103CB600692E0130A9070318AA0A0030AA070330A3
:103CC6002A02E83003192902031C5C2EA0010230E7
:103CD6000A168A11C9220A168A1583120313A90124
:103CE600AA0103302A02E830031929020318080042
:103CF6000130A9070318AA0A0030AA07742E8312F6
:103D06000313A601A701200821040319BB2EA50150
:103D1600A50AA11B9A2E01300310A00DA10DFF3E8E
:103D2600031D8F2E0130A4002408A5078C2E013018
:103D36000310A60DA70DFF3E031D9B2E210823028F
:103D4600031DA72E20082202031CB02E2008A20263
:103D56002108031CA303A302261401300310A10C9F
:103D6600A00CFF3E031DB12E0130A502031D9A2EA5
:103D76002708A1002608A0000800003083120313BC
:103D8600B2000030B1000030B0000030AF00261C99
:103D9600E02E2A08AF072B0803110318013E031D66
:103DA600B0072C0803110318013E031DB1072D08A7
:103DB60003110318013E031DB2070130AE000310C4
:103DC600AA0DAB0DAC0DAD0DAE0BE22E01300310FE
:103DD600A90CA80CA70CA60CFF3E031DEA2E290869
:103DE600280427042604031DCA2E3208A900310818
:103DF600A8003008A7002F08A600080083120313A6
:103E060023082204210420040319462FA901A90A24
:103E1600A31B1B2F0130A8000310A00DA10DA20D9E
:103E2600A30DA80B0F2F0130A8002808A9070B2FF8
:103E360023082702031D292F22082602031D292FE6
:103E460021082502031D292F20082402031C392FCF
:103E56002008A4022108031C210FA5022208031C26
:103E6600220FA6022308031C230FA702013003100A
:103E7600A30CA20CA10CA00CFF3E031D3A2F01308F
:103E8600A902031D1B2F2708A3002608A200250848
:103E9600A1002408A00008000A168A1168230A1641
:103EA6008A150A168A15FC240A168A152B308312DF
:103EB6000313AD002D0883160313CE0021308312A1
:103EC6000313AD002D0883160313CF00173083129A
:103ED6000313AD002D0883160313D000013083129F
:103EE6000313AD002D08F5000C30AD002D08F600CB
:103EF6008430831603138100831203138101A830D3
:103F06008B003F3083160313880003308500803012
:103F160086000030C9000030C8007030C70080300D
:103F2600C6000030CD000030CC000030CB000030A1
:103F3600CA0083120313081388130800831203139D
:103F4600A21FCA2F0030A6000030A7008030A800AC
:103F56002009A9002109AA002209AB00A90A031910
:103F6600AA0A0319AB0A2908A6072A0803182A0F62
:103F7600BD2FBE2FA7072B0803182B0FC32FC42F47
:103F8600A8072608A0002708A1002808A200A51F48
:103F9600F12F0030A6000030A7008030A8002309CA
:103FA600A9002409AA002509AB00A90A0319AA0A2F
:103FB6000319AB0A2908A6072A0803182A0FE42FB3
:103FC600E52FA7072B0803182B0FEA2FEB2FA807BF
:103FD6002608A3002708A4002808A5008030A2060A
:103FE6008030A50625082202031D080024082102A8
:0A3FF600031D080023082002080044
:00000001FF
